{
  "_format": "hh-sol-artifact-1",
  "contractName": "FNFT",
  "sourceName": "contracts/FNFT.sol",
  "abi": [
    {
      "inputs": [],
      "stateMutability": "nonpayable",
      "type": "constructor"
    },
    {
      "inputs": [],
      "name": "ApprovalCallerNotOwnerNorApproved",
      "type": "error"
    },
    {
      "inputs": [],
      "name": "ApprovalQueryForNonexistentToken",
      "type": "error"
    },
    {
      "inputs": [],
      "name": "ApprovalToCurrentOwner",
      "type": "error"
    },
    {
      "inputs": [],
      "name": "ApproveToCaller",
      "type": "error"
    },
    {
      "inputs": [],
      "name": "BalanceQueryForZeroAddress",
      "type": "error"
    },
    {
      "inputs": [],
      "name": "MintToZeroAddress",
      "type": "error"
    },
    {
      "inputs": [],
      "name": "MintZeroQuantity",
      "type": "error"
    },
    {
      "inputs": [],
      "name": "OwnerQueryForNonexistentToken",
      "type": "error"
    },
    {
      "inputs": [],
      "name": "TransferCallerNotOwnerNorApproved",
      "type": "error"
    },
    {
      "inputs": [],
      "name": "TransferFromIncorrectOwner",
      "type": "error"
    },
    {
      "inputs": [],
      "name": "TransferToNonERC721ReceiverImplementer",
      "type": "error"
    },
    {
      "inputs": [],
      "name": "TransferToZeroAddress",
      "type": "error"
    },
    {
      "inputs": [],
      "name": "URIQueryForNonexistentToken",
      "type": "error"
    },
    {
      "anonymous": false,
      "inputs": [
        {
          "indexed": true,
          "internalType": "address",
          "name": "owner",
          "type": "address"
        },
        {
          "indexed": true,
          "internalType": "address",
          "name": "approved",
          "type": "address"
        },
        {
          "indexed": true,
          "internalType": "uint256",
          "name": "tokenId",
          "type": "uint256"
        }
      ],
      "name": "Approval",
      "type": "event"
    },
    {
      "anonymous": false,
      "inputs": [
        {
          "indexed": true,
          "internalType": "address",
          "name": "owner",
          "type": "address"
        },
        {
          "indexed": true,
          "internalType": "address",
          "name": "operator",
          "type": "address"
        },
        {
          "indexed": false,
          "internalType": "bool",
          "name": "approved",
          "type": "bool"
        }
      ],
      "name": "ApprovalForAll",
      "type": "event"
    },
    {
      "anonymous": false,
      "inputs": [
        {
          "indexed": true,
          "internalType": "address",
          "name": "previousOwner",
          "type": "address"
        },
        {
          "indexed": true,
          "internalType": "address",
          "name": "newOwner",
          "type": "address"
        }
      ],
      "name": "OwnershipTransferred",
      "type": "event"
    },
    {
      "anonymous": false,
      "inputs": [
        {
          "indexed": true,
          "internalType": "address",
          "name": "from",
          "type": "address"
        },
        {
          "indexed": true,
          "internalType": "address",
          "name": "to",
          "type": "address"
        },
        {
          "indexed": true,
          "internalType": "uint256",
          "name": "tokenId",
          "type": "uint256"
        }
      ],
      "name": "Transfer",
      "type": "event"
    },
    {
      "inputs": [],
      "name": "MAX_SUPPLY",
      "outputs": [
        {
          "internalType": "uint256",
          "name": "",
          "type": "uint256"
        }
      ],
      "stateMutability": "view",
      "type": "function"
    },
    {
      "inputs": [
        {
          "internalType": "address",
          "name": "to",
          "type": "address"
        },
        {
          "internalType": "uint256",
          "name": "tokenId",
          "type": "uint256"
        }
      ],
      "name": "approve",
      "outputs": [],
      "stateMutability": "nonpayable",
      "type": "function"
    },
    {
      "inputs": [
        {
          "internalType": "address",
          "name": "owner",
          "type": "address"
        }
      ],
      "name": "balanceOf",
      "outputs": [
        {
          "internalType": "uint256",
          "name": "",
          "type": "uint256"
        }
      ],
      "stateMutability": "view",
      "type": "function"
    },
    {
      "inputs": [],
      "name": "baseTokenUri",
      "outputs": [
        {
          "internalType": "string",
          "name": "",
          "type": "string"
        }
      ],
      "stateMutability": "view",
      "type": "function"
    },
    {
      "inputs": [
        {
          "internalType": "uint256",
          "name": "tokenId",
          "type": "uint256"
        }
      ],
      "name": "getApproved",
      "outputs": [
        {
          "internalType": "address",
          "name": "",
          "type": "address"
        }
      ],
      "stateMutability": "view",
      "type": "function"
    },
    {
      "inputs": [
        {
          "internalType": "address",
          "name": "owner",
          "type": "address"
        },
        {
          "internalType": "address",
          "name": "operator",
          "type": "address"
        }
      ],
      "name": "isApprovedForAll",
      "outputs": [
        {
          "internalType": "bool",
          "name": "",
          "type": "bool"
        }
      ],
      "stateMutability": "view",
      "type": "function"
    },
    {
      "inputs": [
        {
          "internalType": "uint256",
          "name": "_quantity",
          "type": "uint256"
        }
      ],
      "name": "mint",
      "outputs": [],
      "stateMutability": "nonpayable",
      "type": "function"
    },
    {
      "inputs": [],
      "name": "name",
      "outputs": [
        {
          "internalType": "string",
          "name": "",
          "type": "string"
        }
      ],
      "stateMutability": "view",
      "type": "function"
    },
    {
      "inputs": [],
      "name": "owner",
      "outputs": [
        {
          "internalType": "address",
          "name": "",
          "type": "address"
        }
      ],
      "stateMutability": "view",
      "type": "function"
    },
    {
      "inputs": [
        {
          "internalType": "uint256",
          "name": "tokenId",
          "type": "uint256"
        }
      ],
      "name": "ownerOf",
      "outputs": [
        {
          "internalType": "address",
          "name": "",
          "type": "address"
        }
      ],
      "stateMutability": "view",
      "type": "function"
    },
    {
      "inputs": [],
      "name": "renounceOwnership",
      "outputs": [],
      "stateMutability": "nonpayable",
      "type": "function"
    },
    {
      "inputs": [
        {
          "internalType": "address",
          "name": "from",
          "type": "address"
        },
        {
          "internalType": "address",
          "name": "to",
          "type": "address"
        },
        {
          "internalType": "uint256",
          "name": "tokenId",
          "type": "uint256"
        }
      ],
      "name": "safeTransferFrom",
      "outputs": [],
      "stateMutability": "nonpayable",
      "type": "function"
    },
    {
      "inputs": [
        {
          "internalType": "address",
          "name": "from",
          "type": "address"
        },
        {
          "internalType": "address",
          "name": "to",
          "type": "address"
        },
        {
          "internalType": "uint256",
          "name": "tokenId",
          "type": "uint256"
        },
        {
          "internalType": "bytes",
          "name": "_data",
          "type": "bytes"
        }
      ],
      "name": "safeTransferFrom",
      "outputs": [],
      "stateMutability": "nonpayable",
      "type": "function"
    },
    {
      "inputs": [
        {
          "internalType": "address",
          "name": "operator",
          "type": "address"
        },
        {
          "internalType": "bool",
          "name": "approved",
          "type": "bool"
        }
      ],
      "name": "setApprovalForAll",
      "outputs": [],
      "stateMutability": "nonpayable",
      "type": "function"
    },
    {
      "inputs": [
        {
          "internalType": "string",
          "name": "_baseTokenUri",
          "type": "string"
        }
      ],
      "name": "setBaseTokenUri",
      "outputs": [],
      "stateMutability": "nonpayable",
      "type": "function"
    },
    {
      "inputs": [
        {
          "internalType": "bytes4",
          "name": "interfaceId",
          "type": "bytes4"
        }
      ],
      "name": "supportsInterface",
      "outputs": [
        {
          "internalType": "bool",
          "name": "",
          "type": "bool"
        }
      ],
      "stateMutability": "view",
      "type": "function"
    },
    {
      "inputs": [],
      "name": "symbol",
      "outputs": [
        {
          "internalType": "string",
          "name": "",
          "type": "string"
        }
      ],
      "stateMutability": "view",
      "type": "function"
    },
    {
      "inputs": [
        {
          "internalType": "uint256",
          "name": "tokenId",
          "type": "uint256"
        }
      ],
      "name": "tokenURI",
      "outputs": [
        {
          "internalType": "string",
          "name": "",
          "type": "string"
        }
      ],
      "stateMutability": "view",
      "type": "function"
    },
    {
      "inputs": [],
      "name": "totalSupply",
      "outputs": [
        {
          "internalType": "uint256",
          "name": "",
          "type": "uint256"
        }
      ],
      "stateMutability": "view",
      "type": "function"
    },
    {
      "inputs": [
        {
          "internalType": "address",
          "name": "from",
          "type": "address"
        },
        {
          "internalType": "address",
          "name": "to",
          "type": "address"
        },
        {
          "internalType": "uint256",
          "name": "tokenId",
          "type": "uint256"
        }
      ],
      "name": "transferFrom",
      "outputs": [],
      "stateMutability": "nonpayable",
      "type": "function"
    },
    {
      "inputs": [
        {
          "internalType": "address",
          "name": "newOwner",
          "type": "address"
        }
      ],
      "name": "transferOwnership",
      "outputs": [],
      "stateMutability": "nonpayable",
      "type": "function"
    }
  ],
  "bytecode": "0x60806040523480156200001157600080fd5b506040518060400160405280600c81526020017f46726f6e74696572204e465400000000000000000000000000000000000000008152506040518060400160405280600481526020017f464e465400000000000000000000000000000000000000000000000000000000815250816002908051906020019062000096929190620001c1565b508060039080519060200190620000af929190620001c1565b50620000c0620000ee60201b60201c565b6000819055505050620000e8620000dc620000f360201b60201c565b620000fb60201b60201c565b620002d6565b600090565b600033905090565b6000600860009054906101000a900473ffffffffffffffffffffffffffffffffffffffff16905081600860006101000a81548173ffffffffffffffffffffffffffffffffffffffff021916908373ffffffffffffffffffffffffffffffffffffffff1602179055508173ffffffffffffffffffffffffffffffffffffffff168173ffffffffffffffffffffffffffffffffffffffff167f8be0079c531659141344cd1fd0a4f28419497f9722a3daafe3b4186f6b6457e060405160405180910390a35050565b828054620001cf9062000271565b90600052602060002090601f016020900481019282620001f357600085556200023f565b82601f106200020e57805160ff19168380011785556200023f565b828001600101855582156200023f579182015b828111156200023e57825182559160200191906001019062000221565b5b5090506200024e919062000252565b5090565b5b808211156200026d57600081600090555060010162000253565b5090565b600060028204905060018216806200028a57607f821691505b60208210811415620002a157620002a0620002a7565b5b50919050565b7f4e487b7100000000000000000000000000000000000000000000000000000000600052602260045260246000fd5b612e7780620002e66000396000f3fe608060405234801561001057600080fd5b50600436106101375760003560e01c8063715018a6116100b8578063a0712d681161007c578063a0712d681461032a578063a22cb46514610346578063b88d4fde14610362578063c87b56dd1461037e578063e985e9c5146103ae578063f2fde38b146103de57610137565b8063715018a6146102aa5780637a0101a2146102b45780638da5cb5b146102d257806395652cfa146102f057806395d89b411461030c57610137565b806323b872dd116100ff57806323b872dd146101f457806332cb6b0c1461021057806342842e0e1461022e5780636352211e1461024a57806370a082311461027a57610137565b806301ffc9a71461013c57806306fdde031461016c578063081812fc1461018a578063095ea7b3146101ba57806318160ddd146101d6575b600080fd5b610156600480360381019061015191906123f2565b6103fa565b6040516101639190612765565b60405180910390f35b6101746104dc565b6040516101819190612780565b60405180910390f35b6101a4600480360381019061019f9190612485565b61056e565b6040516101b191906126fe565b60405180910390f35b6101d460048036038101906101cf91906123b6565b6105ea565b005b6101de6106ef565b6040516101eb9190612842565b60405180910390f35b61020e600480360381019061020991906122b0565b610706565b005b610218610716565b6040516102259190612842565b60405180910390f35b610248600480360381019061024391906122b0565b61071c565b005b610264600480360381019061025f9190612485565b61073c565b60405161027191906126fe565b60405180910390f35b610294600480360381019061028f919061224b565b610752565b6040516102a19190612842565b60405180910390f35b6102b2610822565b005b6102bc6108aa565b6040516102c99190612780565b60405180910390f35b6102da610938565b6040516102e791906126fe565b60405180910390f35b61030a60048036038101906103059190612444565b610962565b005b6103146109f8565b6040516103219190612780565b60405180910390f35b610344600480360381019061033f9190612485565b610a8a565b005b610360600480360381019061035b919061237a565b610b5c565b005b61037c600480360381019061037791906122ff565b610cd4565b005b61039860048036038101906103939190612485565b610d4c565b6040516103a59190612780565b60405180910390f35b6103c860048036038101906103c39190612274565b610e06565b6040516103d59190612765565b60405180910390f35b6103f860048036038101906103f3919061224b565b610e9a565b005b60007f80ac58cd000000000000000000000000000000000000000000000000000000007bffffffffffffffffffffffffffffffffffffffffffffffffffffffff1916827bffffffffffffffffffffffffffffffffffffffffffffffffffffffff191614806104c557507f5b5e139f000000000000000000000000000000000000000000000000000000007bffffffffffffffffffffffffffffffffffffffffffffffffffffffff1916827bffffffffffffffffffffffffffffffffffffffffffffffffffffffff1916145b806104d557506104d482610f92565b5b9050919050565b6060600280546104eb90612aad565b80601f016020809104026020016040519081016040528092919081815260200182805461051790612aad565b80156105645780601f1061053957610100808354040283529160200191610564565b820191906000526020600020905b81548152906001019060200180831161054757829003601f168201915b5050505050905090565b600061057982610ffc565b6105af576040517fcf4700e400000000000000000000000000000000000000000000000000000000815260040160405180910390fd5b6006600083815260200190815260200160002060009054906101000a900473ffffffffffffffffffffffffffffffffffffffff169050919050565b60006105f58261073c565b90508073ffffffffffffffffffffffffffffffffffffffff168373ffffffffffffffffffffffffffffffffffffffff16141561065d576040517f943f7b8c00000000000000000000000000000000000000000000000000000000815260040160405180910390fd5b8073ffffffffffffffffffffffffffffffffffffffff1661067c61104a565b73ffffffffffffffffffffffffffffffffffffffff16146106df576106a8816106a361104a565b610e06565b6106de576040517fcfb3b94200000000000000000000000000000000000000000000000000000000815260040160405180910390fd5b5b6106ea838383611052565b505050565b60006106f9611104565b6001546000540303905090565b610711838383611109565b505050565b6103e881565b61073783838360405180602001604052806000815250610cd4565b505050565b6000610747826115bf565b600001519050919050565b60008073ffffffffffffffffffffffffffffffffffffffff168273ffffffffffffffffffffffffffffffffffffffff1614156107ba576040517f8f4eb60400000000000000000000000000000000000000000000000000000000815260040160405180910390fd5b600560008373ffffffffffffffffffffffffffffffffffffffff1673ffffffffffffffffffffffffffffffffffffffff16815260200190815260200160002060000160009054906101000a900467ffffffffffffffff1667ffffffffffffffff169050919050565b61082a61104a565b73ffffffffffffffffffffffffffffffffffffffff16610848610938565b73ffffffffffffffffffffffffffffffffffffffff161461089e576040517f08c379a0000000000000000000000000000000000000000000000000000000008152600401610895906127e2565b60405180910390fd5b6108a8600061184a565b565b600980546108b790612aad565b80601f01602080910402602001604051908101604052809291908181526020018280546108e390612aad565b80156109305780601f1061090557610100808354040283529160200191610930565b820191906000526020600020905b81548152906001019060200180831161091357829003601f168201915b505050505081565b6000600860009054906101000a900473ffffffffffffffffffffffffffffffffffffffff16905090565b61096a61104a565b73ffffffffffffffffffffffffffffffffffffffff16610988610938565b73ffffffffffffffffffffffffffffffffffffffff16146109de576040517f08c379a00000000000000000000000000000000000000000000000000000000081526004016109d5906127e2565b60405180910390fd5b80600990805190602001906109f492919061202c565b5050565b606060038054610a0790612aad565b80601f0160208091040260200160405190810160405280929190818152602001828054610a3390612aad565b8015610a805780601f10610a5557610100808354040283529160200191610a80565b820191906000526020600020905b815481529060010190602001808311610a6357829003601f168201915b5050505050905090565b3373ffffffffffffffffffffffffffffffffffffffff163273ffffffffffffffffffffffffffffffffffffffff1614610af8576040517f08c379a0000000000000000000000000000000000000000000000000000000008152600401610aef906127c2565b60405180910390fd5b6103e881610b046106ef565b610b0e919061293c565b1115610b4f576040517f08c379a0000000000000000000000000000000000000000000000000000000008152600401610b4690612822565b60405180910390fd5b610b593382611910565b50565b610b6461104a565b73ffffffffffffffffffffffffffffffffffffffff168273ffffffffffffffffffffffffffffffffffffffff161415610bc9576040517fb06307db00000000000000000000000000000000000000000000000000000000815260040160405180910390fd5b8060076000610bd661104a565b73ffffffffffffffffffffffffffffffffffffffff1673ffffffffffffffffffffffffffffffffffffffff16815260200190815260200160002060008473ffffffffffffffffffffffffffffffffffffffff1673ffffffffffffffffffffffffffffffffffffffff16815260200190815260200160002060006101000a81548160ff0219169083151502179055508173ffffffffffffffffffffffffffffffffffffffff16610c8361104a565b73ffffffffffffffffffffffffffffffffffffffff167f17307eab39ab6107e8899845ad3d59bd9653f200f220920489ca2b5937696c3183604051610cc89190612765565b60405180910390a35050565b610cdf848484611109565b610cfe8373ffffffffffffffffffffffffffffffffffffffff1661192e565b15610d4657610d0f84848484611951565b610d45576040517fd1a57ed600000000000000000000000000000000000000000000000000000000815260040160405180910390fd5b5b50505050565b6060610d5782610ffc565b610d96576040517f08c379a0000000000000000000000000000000000000000000000000000000008152600401610d8d90612802565b60405180910390fd5b6000600183610da5919061293c565b9050600060098054610db690612aad565b905011610dd25760405180602001604052806000815250610dfe565b6009610ddd82611ab1565b604051602001610dee9291906126cf565b6040516020818303038152906040525b915050919050565b6000600760008473ffffffffffffffffffffffffffffffffffffffff1673ffffffffffffffffffffffffffffffffffffffff16815260200190815260200160002060008373ffffffffffffffffffffffffffffffffffffffff1673ffffffffffffffffffffffffffffffffffffffff16815260200190815260200160002060009054906101000a900460ff16905092915050565b610ea261104a565b73ffffffffffffffffffffffffffffffffffffffff16610ec0610938565b73ffffffffffffffffffffffffffffffffffffffff1614610f16576040517f08c379a0000000000000000000000000000000000000000000000000000000008152600401610f0d906127e2565b60405180910390fd5b600073ffffffffffffffffffffffffffffffffffffffff168173ffffffffffffffffffffffffffffffffffffffff161415610f86576040517f08c379a0000000000000000000000000000000000000000000000000000000008152600401610f7d906127a2565b60405180910390fd5b610f8f8161184a565b50565b60007f01ffc9a7000000000000000000000000000000000000000000000000000000007bffffffffffffffffffffffffffffffffffffffffffffffffffffffff1916827bffffffffffffffffffffffffffffffffffffffffffffffffffffffff1916149050919050565b600081611007611104565b11158015611016575060005482105b8015611043575060046000838152602001908152602001600020600001601c9054906101000a900460ff16155b9050919050565b600033905090565b826006600084815260200190815260200160002060006101000a81548173ffffffffffffffffffffffffffffffffffffffff021916908373ffffffffffffffffffffffffffffffffffffffff160217905550818373ffffffffffffffffffffffffffffffffffffffff168273ffffffffffffffffffffffffffffffffffffffff167f8c5be1e5ebec7d5bd14f71427d1e84f3dd0314c0f7b2291e5b200ac8c7c3b92560405160405180910390a4505050565b600090565b6000611114826115bf565b90508373ffffffffffffffffffffffffffffffffffffffff16816000015173ffffffffffffffffffffffffffffffffffffffff161461117f576040517fa114810000000000000000000000000000000000000000000000000000000000815260040160405180910390fd5b60008473ffffffffffffffffffffffffffffffffffffffff166111a061104a565b73ffffffffffffffffffffffffffffffffffffffff1614806111cf57506111ce856111c961104a565b610e06565b5b8061121457506111dd61104a565b73ffffffffffffffffffffffffffffffffffffffff166111fc8461056e565b73ffffffffffffffffffffffffffffffffffffffff16145b90508061124d576040517f59c896be00000000000000000000000000000000000000000000000000000000815260040160405180910390fd5b600073ffffffffffffffffffffffffffffffffffffffff168473ffffffffffffffffffffffffffffffffffffffff1614156112b4576040517fea553b3400000000000000000000000000000000000000000000000000000000815260040160405180910390fd5b6112c18585856001611c5e565b6112cd60008487611052565b6001600560008773ffffffffffffffffffffffffffffffffffffffff1673ffffffffffffffffffffffffffffffffffffffff16815260200190815260200160002060000160008282829054906101000a900467ffffffffffffffff160392506101000a81548167ffffffffffffffff021916908367ffffffffffffffff1602179055506001600560008673ffffffffffffffffffffffffffffffffffffffff1673ffffffffffffffffffffffffffffffffffffffff16815260200190815260200160002060000160008282829054906101000a900467ffffffffffffffff160192506101000a81548167ffffffffffffffff021916908367ffffffffffffffff1602179055506000600460008581526020019081526020016000209050848160000160006101000a81548173ffffffffffffffffffffffffffffffffffffffff021916908373ffffffffffffffffffffffffffffffffffffffff160217905550428160000160146101000a81548167ffffffffffffffff021916908367ffffffffffffffff16021790555060006001850190506000600460008381526020019081526020016000209050600073ffffffffffffffffffffffffffffffffffffffff168160000160009054906101000a900473ffffffffffffffffffffffffffffffffffffffff1673ffffffffffffffffffffffffffffffffffffffff16141561154d57600054821461154c57878160000160006101000a81548173ffffffffffffffffffffffffffffffffffffffff021916908373ffffffffffffffffffffffffffffffffffffffff16021790555084602001518160000160146101000a81548167ffffffffffffffff021916908367ffffffffffffffff1602179055505b5b505050828473ffffffffffffffffffffffffffffffffffffffff168673ffffffffffffffffffffffffffffffffffffffff167fddf252ad1be2c89b69c2b068fc378daa952ba7f163c4a11628f55a4df523b3ef60405160405180910390a46115b88585856001611c64565b5050505050565b6115c76120b2565b6000829050806115d5611104565b1161181357600054811015611812576000600460008381526020019081526020016000206040518060600160405290816000820160009054906101000a900473ffffffffffffffffffffffffffffffffffffffff1673ffffffffffffffffffffffffffffffffffffffff1673ffffffffffffffffffffffffffffffffffffffff1681526020016000820160149054906101000a900467ffffffffffffffff1667ffffffffffffffff1667ffffffffffffffff16815260200160008201601c9054906101000a900460ff1615151515815250509050806040015161181057600073ffffffffffffffffffffffffffffffffffffffff16816000015173ffffffffffffffffffffffffffffffffffffffff16146116f4578092505050611845565b5b60011561180f57818060019003925050600460008381526020019081526020016000206040518060600160405290816000820160009054906101000a900473ffffffffffffffffffffffffffffffffffffffff1673ffffffffffffffffffffffffffffffffffffffff1673ffffffffffffffffffffffffffffffffffffffff1681526020016000820160149054906101000a900467ffffffffffffffff1667ffffffffffffffff1667ffffffffffffffff16815260200160008201601c9054906101000a900460ff1615151515815250509050600073ffffffffffffffffffffffffffffffffffffffff16816000015173ffffffffffffffffffffffffffffffffffffffff161461180a578092505050611845565b6116f5565b5b505b5b6040517fdf2d9b4200000000000000000000000000000000000000000000000000000000815260040160405180910390fd5b919050565b6000600860009054906101000a900473ffffffffffffffffffffffffffffffffffffffff16905081600860006101000a81548173ffffffffffffffffffffffffffffffffffffffff021916908373ffffffffffffffffffffffffffffffffffffffff1602179055508173ffffffffffffffffffffffffffffffffffffffff168173ffffffffffffffffffffffffffffffffffffffff167f8be0079c531659141344cd1fd0a4f28419497f9722a3daafe3b4186f6b6457e060405160405180910390a35050565b61192a828260405180602001604052806000815250611c6a565b5050565b6000808273ffffffffffffffffffffffffffffffffffffffff163b119050919050565b60008373ffffffffffffffffffffffffffffffffffffffff1663150b7a0261197761104a565b8786866040518563ffffffff1660e01b81526004016119999493929190612719565b602060405180830381600087803b1580156119b357600080fd5b505af19250505080156119e457506040513d601f19601f820116820180604052508101906119e1919061241b565b60015b611a5e573d8060008114611a14576040519150601f19603f3d011682016040523d82523d6000602084013e611a19565b606091505b50600081511415611a56576040517fd1a57ed600000000000000000000000000000000000000000000000000000000815260040160405180910390fd5b805181602001fd5b63150b7a0260e01b7bffffffffffffffffffffffffffffffffffffffffffffffffffffffff1916817bffffffffffffffffffffffffffffffffffffffffffffffffffffffff191614915050949350505050565b60606000821415611af9576040518060400160405280600181526020017f30000000000000000000000000000000000000000000000000000000000000008152509050611c59565b600082905060005b60008214611b2b578080611b1490612b10565b915050600a82611b249190612992565b9150611b01565b60008167ffffffffffffffff811115611b6d577f4e487b7100000000000000000000000000000000000000000000000000000000600052604160045260246000fd5b6040519080825280601f01601f191660200182016040528015611b9f5781602001600182028036833780820191505090505b5090505b60008514611c5257600182611bb891906129c3565b9150600a85611bc79190612b59565b6030611bd3919061293c565b60f81b818381518110611c0f577f4e487b7100000000000000000000000000000000000000000000000000000000600052603260045260246000fd5b60200101907effffffffffffffffffffffffffffffffffffffffffffffffffffffffffffff1916908160001a905350600a85611c4b9190612992565b9450611ba3565b8093505050505b919050565b50505050565b50505050565b600080549050600073ffffffffffffffffffffffffffffffffffffffff168473ffffffffffffffffffffffffffffffffffffffff161415611cd7576040517f2e07630000000000000000000000000000000000000000000000000000000000815260040160405180910390fd5b6000831415611d12576040517fb562e8dd00000000000000000000000000000000000000000000000000000000815260040160405180910390fd5b611d1f6000858386611c5e565b82600560008673ffffffffffffffffffffffffffffffffffffffff1673ffffffffffffffffffffffffffffffffffffffff16815260200190815260200160002060000160008282829054906101000a900467ffffffffffffffff160192506101000a81548167ffffffffffffffff021916908367ffffffffffffffff16021790555082600560008673ffffffffffffffffffffffffffffffffffffffff1673ffffffffffffffffffffffffffffffffffffffff16815260200190815260200160002060000160088282829054906101000a900467ffffffffffffffff160192506101000a81548167ffffffffffffffff021916908367ffffffffffffffff160217905550836004600083815260200190815260200160002060000160006101000a81548173ffffffffffffffffffffffffffffffffffffffff021916908373ffffffffffffffffffffffffffffffffffffffff160217905550426004600083815260200190815260200160002060000160146101000a81548167ffffffffffffffff021916908367ffffffffffffffff160217905550600081905060008482019050611ee08673ffffffffffffffffffffffffffffffffffffffff1661192e565b15611fa5575b818673ffffffffffffffffffffffffffffffffffffffff16600073ffffffffffffffffffffffffffffffffffffffff167fddf252ad1be2c89b69c2b068fc378daa952ba7f163c4a11628f55a4df523b3ef60405160405180910390a4611f556000878480600101955087611951565b611f8b576040517fd1a57ed600000000000000000000000000000000000000000000000000000000815260040160405180910390fd5b808210611ee6578260005414611fa057600080fd5b612010565b5b818060010192508673ffffffffffffffffffffffffffffffffffffffff16600073ffffffffffffffffffffffffffffffffffffffff167fddf252ad1be2c89b69c2b068fc378daa952ba7f163c4a11628f55a4df523b3ef60405160405180910390a4808210611fa6575b8160008190555050506120266000858386611c64565b50505050565b82805461203890612aad565b90600052602060002090601f01602090048101928261205a57600085556120a1565b82601f1061207357805160ff19168380011785556120a1565b828001600101855582156120a1579182015b828111156120a0578251825591602001919060010190612085565b5b5090506120ae91906120f5565b5090565b6040518060600160405280600073ffffffffffffffffffffffffffffffffffffffff168152602001600067ffffffffffffffff1681526020016000151581525090565b5b8082111561210e5760008160009055506001016120f6565b5090565b600061212561212084612882565b61285d565b90508281526020810184848401111561213d57600080fd5b612148848285612a6b565b509392505050565b600061216361215e846128b3565b61285d565b90508281526020810184848401111561217b57600080fd5b612186848285612a6b565b509392505050565b60008135905061219d81612de5565b92915050565b6000813590506121b281612dfc565b92915050565b6000813590506121c781612e13565b92915050565b6000815190506121dc81612e13565b92915050565b600082601f8301126121f357600080fd5b8135612203848260208601612112565b91505092915050565b600082601f83011261221d57600080fd5b813561222d848260208601612150565b91505092915050565b60008135905061224581612e2a565b92915050565b60006020828403121561225d57600080fd5b600061226b8482850161218e565b91505092915050565b6000806040838503121561228757600080fd5b60006122958582860161218e565b92505060206122a68582860161218e565b9150509250929050565b6000806000606084860312156122c557600080fd5b60006122d38682870161218e565b93505060206122e48682870161218e565b92505060406122f586828701612236565b9150509250925092565b6000806000806080858703121561231557600080fd5b60006123238782880161218e565b94505060206123348782880161218e565b935050604061234587828801612236565b925050606085013567ffffffffffffffff81111561236257600080fd5b61236e878288016121e2565b91505092959194509250565b6000806040838503121561238d57600080fd5b600061239b8582860161218e565b92505060206123ac858286016121a3565b9150509250929050565b600080604083850312156123c957600080fd5b60006123d78582860161218e565b92505060206123e885828601612236565b9150509250929050565b60006020828403121561240457600080fd5b6000612412848285016121b8565b91505092915050565b60006020828403121561242d57600080fd5b600061243b848285016121cd565b91505092915050565b60006020828403121561245657600080fd5b600082013567ffffffffffffffff81111561247057600080fd5b61247c8482850161220c565b91505092915050565b60006020828403121561249757600080fd5b60006124a584828501612236565b91505092915050565b6124b7816129f7565b82525050565b6124c681612a09565b82525050565b60006124d7826128f9565b6124e1818561290f565b93506124f1818560208601612a7a565b6124fa81612c46565b840191505092915050565b600061251082612904565b61251a8185612920565b935061252a818560208601612a7a565b61253381612c46565b840191505092915050565b600061254982612904565b6125538185612931565b9350612563818560208601612a7a565b80840191505092915050565b6000815461257c81612aad565b6125868186612931565b945060018216600081146125a157600181146125b2576125e5565b60ff198316865281860193506125e5565b6125bb856128e4565b60005b838110156125dd578154818901526001820191506020810190506125be565b838801955050505b50505092915050565b60006125fb602683612920565b915061260682612c57565b604082019050919050565b600061261e602e83612920565b915061262982612ca6565b604082019050919050565b6000612641600583612931565b915061264c82612cf5565b600582019050919050565b6000612664602083612920565b915061266f82612d1e565b602082019050919050565b6000612687602f83612920565b915061269282612d47565b604082019050919050565b60006126aa602183612920565b91506126b582612d96565b604082019050919050565b6126c981612a61565b82525050565b60006126db828561256f565b91506126e7828461253e565b91506126f282612634565b91508190509392505050565b600060208201905061271360008301846124ae565b92915050565b600060808201905061272e60008301876124ae565b61273b60208301866124ae565b61274860408301856126c0565b818103606083015261275a81846124cc565b905095945050505050565b600060208201905061277a60008301846124bd565b92915050565b6000602082019050818103600083015261279a8184612505565b905092915050565b600060208201905081810360008301526127bb816125ee565b9050919050565b600060208201905081810360008301526127db81612611565b9050919050565b600060208201905081810360008301526127fb81612657565b9050919050565b6000602082019050818103600083015261281b8161267a565b9050919050565b6000602082019050818103600083015261283b8161269d565b9050919050565b600060208201905061285760008301846126c0565b92915050565b6000612867612878565b90506128738282612adf565b919050565b6000604051905090565b600067ffffffffffffffff82111561289d5761289c612c17565b5b6128a682612c46565b9050602081019050919050565b600067ffffffffffffffff8211156128ce576128cd612c17565b5b6128d782612c46565b9050602081019050919050565b60008190508160005260206000209050919050565b600081519050919050565b600081519050919050565b600082825260208201905092915050565b600082825260208201905092915050565b600081905092915050565b600061294782612a61565b915061295283612a61565b9250827fffffffffffffffffffffffffffffffffffffffffffffffffffffffffffffffff0382111561298757612986612b8a565b5b828201905092915050565b600061299d82612a61565b91506129a883612a61565b9250826129b8576129b7612bb9565b5b828204905092915050565b60006129ce82612a61565b91506129d983612a61565b9250828210156129ec576129eb612b8a565b5b828203905092915050565b6000612a0282612a41565b9050919050565b60008115159050919050565b60007fffffffff0000000000000000000000000000000000000000000000000000000082169050919050565b600073ffffffffffffffffffffffffffffffffffffffff82169050919050565b6000819050919050565b82818337600083830152505050565b60005b83811015612a98578082015181840152602081019050612a7d565b83811115612aa7576000848401525b50505050565b60006002820490506001821680612ac557607f821691505b60208210811415612ad957612ad8612be8565b5b50919050565b612ae882612c46565b810181811067ffffffffffffffff82111715612b0757612b06612c17565b5b80604052505050565b6000612b1b82612a61565b91507fffffffffffffffffffffffffffffffffffffffffffffffffffffffffffffffff821415612b4e57612b4d612b8a565b5b600182019050919050565b6000612b6482612a61565b9150612b6f83612a61565b925082612b7f57612b7e612bb9565b5b828206905092915050565b7f4e487b7100000000000000000000000000000000000000000000000000000000600052601160045260246000fd5b7f4e487b7100000000000000000000000000000000000000000000000000000000600052601260045260246000fd5b7f4e487b7100000000000000000000000000000000000000000000000000000000600052602260045260246000fd5b7f4e487b7100000000000000000000000000000000000000000000000000000000600052604160045260246000fd5b6000601f19601f8301169050919050565b7f4f776e61626c653a206e6577206f776e657220697320746865207a65726f206160008201527f6464726573730000000000000000000000000000000000000000000000000000602082015250565b7f46726f6e74696572204e4654203a3a2043616e6e6f742062652063616c6c656460008201527f206279206120636f6e7472616374000000000000000000000000000000000000602082015250565b7f2e6a736f6e000000000000000000000000000000000000000000000000000000600082015250565b7f4f776e61626c653a2063616c6c6572206973206e6f7420746865206f776e6572600082015250565b7f4552433732314d657461646174613a2055524920717565727920666f72206e6f60008201527f6e6578697374656e7420746f6b656e0000000000000000000000000000000000602082015250565b7f46726f6e74696572204e4654203a3a204265796f6e64204d617820537570706c60008201527f7900000000000000000000000000000000000000000000000000000000000000602082015250565b612dee816129f7565b8114612df957600080fd5b50565b612e0581612a09565b8114612e1057600080fd5b50565b612e1c81612a15565b8114612e2757600080fd5b50565b612e3381612a61565b8114612e3e57600080fd5b5056fea2646970667358221220e9b3cbd4fc43a5d7aad53d7a5de2c2b612a9aa5daa8ca40183ea8483f1d4e30864736f6c63430008040033",
  "linkReferences": {},
  "deployedLinkReferences": {}
}